Started by user [8mha:////4E1BJeSkhoNbPW7OBH7HhgjMJA06hkUXx/zsCAPI0CxwAAAAlx+LCAAAAAAAAP9b85aBtbiIQTGjNKU4P08vOT+vOD8nVc83PyU1x6OyILUoJzMv2y+/JJUBAhiZGBgqihhk0NSjKDWzXb3RdlLBUSYGJk8GtpzUvPSSDB8G5tKinBIGIZ+sxLJE/ZzEvHT94JKizLx0a6BxUmjGOUNodHsLgAzWEgZu/dLi1CL9xJTczDwAj6GcLcAAAAA=[0madmin
Running as SYSTEM
[EnvInject] - Loading node environment variables.
Building in workspace /home/tobias/.jenkins/workspace/Main
The recommended git tool is: NONE
No credentials specified
 > git rev-parse --resolve-git-dir /home/tobias/.jenkins/workspace/Main/.git # timeout=10
Fetching changes from the remote Git repository
 > git config remote.origin.url file:///home/tobias/sandbox/augur # timeout=10
Fetching upstream changes from file:///home/tobias/sandbox/augur
 > git --version # timeout=10
 > git --version # 'git version 2.39.2'
 > git fetch --tags --force --progress -- file:///home/tobias/sandbox/augur +refs/heads/*:refs/remotes/origin/* # timeout=10
 > git rev-parse refs/remotes/origin/sim-dep-env^{commit} # timeout=10
Checking out Revision 1433f34c0ef646f17023bb8b57fd7beb5a6e4ae6 (refs/remotes/origin/sim-dep-env)
 > git config core.sparsecheckout # timeout=10
 > git checkout -f 1433f34c0ef646f17023bb8b57fd7beb5a6e4ae6 # timeout=10
Commit message: "export contract deployed contract address"
 > git rev-list --no-walk 1433f34c0ef646f17023bb8b57fd7beb5a6e4ae6 # timeout=10
[EnvInject] - Inject global passwords.
[EnvInject] - Mask passwords that will be passed as build parameters.
Getting commit hash from environment
Git commit hash: 1433f34c0ef646f17023bb8b57fd7beb5a6e4ae6
Calling webhook URL: http://localhost:8080/generic-webhook-trigger/invoke?token=0x9611075f14efec782533a711e07bbee564550aa2&GIVEN_GIT_COMMIT=1433f34c0ef646f17023bb8b57fd7beb5a6e4ae6&VOTING_TYPE=version
OK
Checking if VersionProposal is accepted or rejected
[Main] $ /bin/sh -xe /tmp/jenkins11348627580250269417.sh
+ set -e
+ python3.8 -m venv venv
+ yarn
yarn install v1.22.19
[1/5] Validating package.json...
[2/5] Resolving packages...
warning Resolution field "sha3@2.0.1" is incompatible with requested version "sha3@^1.2.2"
warning Resolution field "lodash@4.17.15" is incompatible with requested version "lodash@4.17.19"
warning Resolution field "lodash@4.17.15" is incompatible with requested version "lodash@4.17.19"
warning Resolution field "lodash@4.17.15" is incompatible with requested version "lodash@4.17.19"
warning Resolution field "@0x/mesh-browser-lite@v10.0.0-unstable-6" is incompatible with requested version "@0x/mesh-browser-lite@^9.4.0"
warning Resolution field "bignumber.js@9.0.0" is incompatible with requested version "bignumber.js@~8.0.2"
warning Resolution field "lodash@4.17.15" is incompatible with requested version "lodash@4.17.14"
warning Resolution field "ethers@4.0.47" is incompatible with requested version "ethers@4.0.0-beta.3"
warning Resolution field "lodash@4.17.15" is incompatible with requested version "lodash@=3.10.1"
warning Resolution field "ethers@4.0.47" is incompatible with requested version "ethers@4.0.0-beta.3"
warning Resolution field "leveldown@5.4.1" is incompatible with requested version "leveldown@~5.1.1"
warning Resolution field "leveldown@5.4.1" is incompatible with requested version "leveldown@~5.1.1"
success Already up-to-date.
Done in 1.94s.
+ make build-contracts
yarn
yarn install v1.22.19
[1/5] Validating package.json...
[2/5] Resolving packages...
warning Resolution field "sha3@2.0.1" is incompatible with requested version "sha3@^1.2.2"
warning Resolution field "lodash@4.17.15" is incompatible with requested version "lodash@4.17.19"
warning Resolution field "lodash@4.17.15" is incompatible with requested version "lodash@4.17.19"
warning Resolution field "lodash@4.17.15" is incompatible with requested version "lodash@4.17.19"
warning Resolution field "@0x/mesh-browser-lite@v10.0.0-unstable-6" is incompatible with requested version "@0x/mesh-browser-lite@^9.4.0"
warning Resolution field "bignumber.js@9.0.0" is incompatible with requested version "bignumber.js@~8.0.2"
warning Resolution field "lodash@4.17.15" is incompatible with requested version "lodash@4.17.14"
warning Resolution field "ethers@4.0.47" is incompatible with requested version "ethers@4.0.0-beta.3"
warning Resolution field "lodash@4.17.15" is incompatible with requested version "lodash@=3.10.1"
warning Resolution field "ethers@4.0.47" is incompatible with requested version "ethers@4.0.0-beta.3"
warning Resolution field "leveldown@5.4.1" is incompatible with requested version "leveldown@~5.1.1"
warning Resolution field "leveldown@5.4.1" is incompatible with requested version "leveldown@~5.1.1"
success Already up-to-date.
Done in 2.06s.
yarn build
yarn run v1.22.19
$ tsc -b
Done in 4.85s.
python3 -m pip install virtualenv
Defaulting to user installation because normal site-packages is not writeable
Requirement already satisfied: virtualenv in /usr/lib/python3.10/site-packages (20.16.7)
Requirement already satisfied: filelock<4,>=3.4.1 in /usr/lib/python3.10/site-packages (from virtualenv) (3.9.0)
Requirement already satisfied: platformdirs<3,>=2.4 in /usr/lib/python3.10/site-packages (from virtualenv) (2.5.2)
Requirement already satisfied: distlib<1,>=0.3.6 in /usr/lib/python3.10/site-packages (from virtualenv) (0.3.6)
python3 -m venv venv
. venv/bin/activate; \
python3 -m pip install -r packages/augur-core/requirements.txt; \
yarn workspace @augurproject/core build:contracts; \
deactivate
Requirement already satisfied: atomicwrites==1.3.0 in ./venv/lib/python3.8/site-packages (from -r packages/augur-core/requirements.txt (line 7)) (1.3.0)
Requirement already satisfied: attrdict==2.0.1 in ./venv/lib/python3.8/site-packages (from -r packages/augur-core/requirements.txt (line 8)) (2.0.1)
Requirement already satisfied: attrs==19.1.0 in ./venv/lib/python3.8/site-packages (from -r packages/augur-core/requirements.txt (line 9)) (19.1.0)
Requirement already satisfied: augur-solidity-flattener==0.2.5 in ./venv/lib/python3.8/site-packages (from -r packages/augur-core/requirements.txt (line 10)) (0.2.5)
Requirement already satisfied: base58==1.0.3 in ./venv/lib/python3.8/site-packages (from -r packages/augur-core/requirements.txt (line 11)) (1.0.3)
Requirement already satisfied: blake2b-py==0.1.3 in ./venv/lib/python3.8/site-packages (from -r packages/augur-core/requirements.txt (line 12)) (0.1.3)
Requirement already satisfied: cached-property==1.5.1 in ./venv/lib/python3.8/site-packages (from -r packages/augur-core/requirements.txt (line 13)) (1.5.1)
Requirement already satisfied: certifi==2019.9.11 in ./venv/lib/python3.8/site-packages (from -r packages/augur-core/requirements.txt (line 14)) (2019.9.11)
Requirement already satisfied: chardet==3.0.4 in ./venv/lib/python3.8/site-packages (from -r packages/augur-core/requirements.txt (line 15)) (3.0.4)
Requirement already satisfied: cytoolz==0.10.1 in ./venv/lib/python3.8/site-packages (from -r packages/augur-core/requirements.txt (line 16)) (0.10.1)
Requirement already satisfied: eth-abi==2.0.0 in ./venv/lib/python3.8/site-packages (from -r packages/augur-core/requirements.txt (line 17)) (2.0.0)
Requirement already satisfied: eth-account==0.4.0 in ./venv/lib/python3.8/site-packages (from -r packages/augur-core/requirements.txt (line 18)) (0.4.0)
Requirement already satisfied: eth-bloom==1.0.3 in ./venv/lib/python3.8/site-packages (from -r packages/augur-core/requirements.txt (line 19)) (1.0.3)
Requirement already satisfied: eth-hash[pycryptodome]==0.2.0 in ./venv/lib/python3.8/site-packages (from -r packages/augur-core/requirements.txt (line 20)) (0.2.0)
Requirement already satisfied: eth-keyfile==0.5.1 in ./venv/lib/python3.8/site-packages (from -r packages/augur-core/requirements.txt (line 21)) (0.5.1)
Requirement already satisfied: eth-keys==0.2.4 in ./venv/lib/python3.8/site-packages (from -r packages/augur-core/requirements.txt (line 22)) (0.2.4)
Requirement already satisfied: eth-rlp==0.1.2 in ./venv/lib/python3.8/site-packages (from -r packages/augur-core/requirements.txt (line 23)) (0.1.2)
Requirement already satisfied: eth-tester==0.4.0b1 in ./venv/lib/python3.8/site-packages (from -r packages/augur-core/requirements.txt (line 24)) (0.4.0b1)
Requirement already satisfied: eth-typing==2.2.1 in ./venv/lib/python3.8/site-packages (from -r packages/augur-core/requirements.txt (line 25)) (2.2.1)
Requirement already satisfied: eth-utils==1.8.4 in ./venv/lib/python3.8/site-packages (from -r packages/augur-core/requirements.txt (line 26)) (1.8.4)
Requirement already satisfied: gprof2dot==2017.9.19 in ./venv/lib/python3.8/site-packages (from -r packages/augur-core/requirements.txt (line 27)) (2017.9.19)
Requirement already satisfied: hexbytes==0.2.0 in ./venv/lib/python3.8/site-packages (from -r packages/augur-core/requirements.txt (line 28)) (0.2.0)
Requirement already satisfied: idna==2.8 in ./venv/lib/python3.8/site-packages (from -r packages/augur-core/requirements.txt (line 29)) (2.8)
Requirement already satisfied: importlib-metadata==0.23 in ./venv/lib/python3.8/site-packages (from -r packages/augur-core/requirements.txt (line 30)) (0.23)
Requirement already satisfied: ipfshttpclient==0.4.12 in ./venv/lib/python3.8/site-packages (from -r packages/augur-core/requirements.txt (line 31)) (0.4.12)
Requirement already satisfied: jsonschema==3.2.0 in ./venv/lib/python3.8/site-packages (from -r packages/augur-core/requirements.txt (line 32)) (3.2.0)
Requirement already satisfied: lru-dict==1.1.6 in ./venv/lib/python3.8/site-packages (from -r packages/augur-core/requirements.txt (line 33)) (1.1.6)
Requirement already satisfied: more-itertools==7.2.0 in ./venv/lib/python3.8/site-packages (from -r packages/augur-core/requirements.txt (line 34)) (7.2.0)
Requirement already satisfied: multiaddr==0.0.8 in ./venv/lib/python3.8/site-packages (from -r packages/augur-core/requirements.txt (line 35)) (0.0.8)
Requirement already satisfied: mypy-extensions==0.4.1 in ./venv/lib/python3.8/site-packages (from -r packages/augur-core/requirements.txt (line 36)) (0.4.1)
Requirement already satisfied: netaddr==0.7.19 in ./venv/lib/python3.8/site-packages (from -r packages/augur-core/requirements.txt (line 37)) (0.7.19)
Requirement already satisfied: numpy==1.18.3 in ./venv/lib/python3.8/site-packages (from -r packages/augur-core/requirements.txt (line 38)) (1.18.3)
Requirement already satisfied: packaging==19.2 in ./venv/lib/python3.8/site-packages (from -r packages/augur-core/requirements.txt (line 39)) (19.2)
Requirement already satisfied: parsimonious==0.8.1 in ./venv/lib/python3.8/site-packages (from -r packages/augur-core/requirements.txt (line 40)) (0.8.1)
Requirement already satisfied: pluggy==0.13.0 in ./venv/lib/python3.8/site-packages (from -r packages/augur-core/requirements.txt (line 41)) (0.13.0)
Requirement already satisfied: protobuf==3.11.2 in ./venv/lib/python3.8/site-packages (from -r packages/augur-core/requirements.txt (line 42)) (3.11.2)
Requirement already satisfied: py-ecc==1.7.1 in ./venv/lib/python3.8/site-packages (from -r packages/augur-core/requirements.txt (line 43)) (1.7.1)
Requirement already satisfied: py-evm==0.3.0a14 in ./venv/lib/python3.8/site-packages (from -r packages/augur-core/requirements.txt (line 44)) (0.3.0a14)
Requirement already satisfied: py-geth==2.2.0 in ./venv/lib/python3.8/site-packages (from -r packages/augur-core/requirements.txt (line 45)) (2.2.0)
Requirement already satisfied: py-solc==1.4.0 in ./venv/lib/python3.8/site-packages (from -r packages/augur-core/requirements.txt (line 46)) (1.4.0)
Requirement already satisfied: py==1.8.0 in ./venv/lib/python3.8/site-packages (from -r packages/augur-core/requirements.txt (line 47)) (1.8.0)
Requirement already satisfied: pycryptodome==3.9.0 in ./venv/lib/python3.8/site-packages (from -r packages/augur-core/requirements.txt (line 48)) (3.9.0)
Requirement already satisfied: pyethash==0.1.27 in ./venv/lib/python3.8/site-packages (from -r packages/augur-core/requirements.txt (line 49)) (0.1.27)
Requirement already satisfied: pyparsing==2.4.2 in ./venv/lib/python3.8/site-packages (from -r packages/augur-core/requirements.txt (line 50)) (2.4.2)
Requirement already satisfied: pyrsistent==0.15.6 in ./venv/lib/python3.8/site-packages (from -r packages/augur-core/requirements.txt (line 51)) (0.15.6)
Requirement already satisfied: pysha3==1.0.2 in ./venv/lib/python3.8/site-packages (from -r packages/augur-core/requirements.txt (line 52)) (1.0.2)
Requirement already satisfied: pytest-profiling==1.2.11 in ./venv/lib/python3.8/site-packages (from -r packages/augur-core/requirements.txt (line 53)) (1.2.11)
Requirement already satisfied: pytest==4.6.5 in ./venv/lib/python3.8/site-packages (from -r packages/augur-core/requirements.txt (line 54)) (4.6.5)
Requirement already satisfied: requests==2.22.0 in ./venv/lib/python3.8/site-packages (from -r packages/augur-core/requirements.txt (line 55)) (2.22.0)
Requirement already satisfied: rlp==1.1.0 in ./venv/lib/python3.8/site-packages (from -r packages/augur-core/requirements.txt (line 56)) (1.1.0)
Requirement already satisfied: semantic-version==2.8.2 in ./venv/lib/python3.8/site-packages (from -r packages/augur-core/requirements.txt (line 57)) (2.8.2)
Requirement already satisfied: six==1.12.0 in ./venv/lib/python3.8/site-packages (from -r packages/augur-core/requirements.txt (line 58)) (1.12.0)
Requirement already satisfied: toolz==0.10.0 in ./venv/lib/python3.8/site-packages (from -r packages/augur-core/requirements.txt (line 59)) (0.10.0)
Requirement already satisfied: trie==1.4.0 in ./venv/lib/python3.8/site-packages (from -r packages/augur-core/requirements.txt (line 60)) (1.4.0)
Requirement already satisfied: typing-extensions==3.7.4.1 in ./venv/lib/python3.8/site-packages (from -r packages/augur-core/requirements.txt (line 61)) (3.7.4.1)
Requirement already satisfied: urllib3==1.25.5 in ./venv/lib/python3.8/site-packages (from -r packages/augur-core/requirements.txt (line 62)) (1.25.5)
Requirement already satisfied: varint==1.0.2 in ./venv/lib/python3.8/site-packages (from -r packages/augur-core/requirements.txt (line 63)) (1.0.2)
Requirement already satisfied: virtualenv==15.2.0 in ./venv/lib/python3.8/site-packages (from -r packages/augur-core/requirements.txt (line 64)) (15.2.0)
Requirement already satisfied: wcwidth==0.1.7 in ./venv/lib/python3.8/site-packages (from -r packages/augur-core/requirements.txt (line 65)) (0.1.7)
Requirement already satisfied: web3==5.6.0 in ./venv/lib/python3.8/site-packages (from -r packages/augur-core/requirements.txt (line 66)) (5.6.0)
Requirement already satisfied: websockets==8.1 in ./venv/lib/python3.8/site-packages (from -r packages/augur-core/requirements.txt (line 67)) (8.1)
Requirement already satisfied: zipp==0.6.0 in ./venv/lib/python3.8/site-packages (from -r packages/augur-core/requirements.txt (line 68)) (0.6.0)
Requirement already satisfied: setuptools in ./venv/lib/python3.8/site-packages (from jsonschema==3.2.0->-r packages/augur-core/requirements.txt (line 32)) (56.0.0)
WARNING: You are using pip version 22.0.4; however, version 23.0.1 is available.
You should consider upgrading via the '/home/tobias/.jenkins/workspace/Main/venv/bin/python3 -m pip install --upgrade pip' command.
yarn workspace v1.22.19
yarn run v1.22.19
$ node -r ts-node/register src/deployment/compileContracts.ts && npm run build:documentation
npm WARN lifecycle The node binary used for scripts is /tmp/yarn--1678400339093-0.3169532817429097/node but npm is using /home/tobias/.config/nvm/versions/node/v12.22.12/bin/node itself. Use the `--scripts-prepend-node-path` option to include the path for the node binary npm was executed with.

> @augurproject/core@2.0.5 build:documentation /home/tobias/.jenkins/workspace/Main/packages/augur-core
> yarn solidity-docgen -s ./output/contracts/contracts_full.json -o ../../docs/contracts

$ /home/tobias/.jenkins/workspace/Main/node_modules/.bin/solidity-docgen -s ./output/contracts/contracts_full.json -o ../../docs/contracts
Done in 3.51s.
Done in 3.83s.
+ yarn tools flash --key [*******] deploy
yarn run v1.22.19
$ yarn workspace @augurproject/tools flash --key [*******] deploy
$ ts-node ./src/flash/cli --key [*******] deploy
Deploying:  {
  isProduction: false,
  enableFaucets: true,
  normalTime: true,
  writeArtifacts: true,
  serial: true,
  externalAddresses: {}
}
Processing 66 contracts
Processing contract: ERC1155Proxy
Processing contract: ERC20Proxy
Processing contract: ERC721Proxy
Processing contract: MultiAssetProxy
Processing contract: ChaiBridge
Processing contract: Coordinator
Processing contract: CoordinatorRegistry
Processing contract: DevUtils
Processing contract: WETH9
Processing contract: ZRXToken
Processing contract: Exchange
Processing contract: Augur
Processing contract: AugurWallet
Processing contract: AugurWalletRegistry
Processing contract: AugurWalletRegistryV2
Processing contract: Cash
Processing contract: LegacyReputationToken
Processing contract: TestNetReputationToken
Processing contract: Time
Processing contract: TimeControlled
Processing contract: USDC
Processing contract: USDT
Processing contract: WarpSync
Processing contract: AugurWalletFactory
Processing contract: DisputeCrowdsourcerFactory
Processing contract: DisputeWindowFactory
Processing contract: InitialReporterFactory
Processing contract: MarketFactory
Processing contract: OICashFactory
Processing contract: ReputationTokenFactory
Processing contract: TestNetReputationTokenFactory
Processing contract: UniverseFactory
Processing contract: RelayHub
Processing contract: Penalizer
Processing contract: RelayHubV2
Processing contract: StakeManager
Processing contract: AffiliateValidator
Processing contract: Affiliates
Processing contract: DisputeCrowdsourcer
Processing contract: DisputeWindow
Processing contract: InitialReporter
Processing contract: Market
Processing contract: OICash
Processing contract: RepOracle
Processing contract: ReputationToken
Processing contract: ShareToken
Processing contract: Universe
Processing contract: AugurTrading
Processing contract: CancelOrder
Processing contract: CreateOrder
Processing contract: FillOrder
Processing contract: Orders
Processing contract: ProfitLoss
Processing contract: SimulateTrade
Processing contract: Trade
Processing contract: ZeroXTrade
Processing contract: UniswapV2Factory
Processing contract: UniswapV2Pair
Processing contract: UniswapV2Router02
Processing contract: AccountLoader
Processing contract: AuditFunds
Processing contract: BuyParticipationTokens
Processing contract: Formulas
Processing contract: HotLoading
Processing contract: RedeemStake
Processing contract: RepSymbol
Uploading Augur Wallet Factory...
Upload contract: AugurWalletFactory
Uploaded contract: AugurWalletFactory: "0x6d18A924c3969cAaA6dFBF56d39553aB31291e57"
Uploading augur...
Upload contract: Augur
Uploaded contract: Augur: "0xc28F36ca04dDEF121bf9F6065F51Ab79303d3CF3"
CONTRACT_ADDRESS=0xc28F36ca04dDEF121bf9F6065F51Ab79303d3CF3
Augur address: 0xc28F36ca04dDEF121bf9F6065F51Ab79303d3CF3
Uploading Augur Trading...
Upload contract: AugurTrading
Uploaded contract: AugurTrading: "0xc0641195Ba4Df2c70532975BABbCa22721972FdA"
Augur Trading address: 0xc0641195Ba4Df2c70532975BABbCa22721972FdA
Uploading contracts...
Uploading new version of contract for AugurWallet
Upload contract: AugurWallet
Uploaded contract: AugurWallet: "0x81B576aA2C9bf0cAcA41F46A2a842123Fd7a500A"
Uploading new version of contract for AugurWalletRegistry
Upload contract: AugurWalletRegistry
Uploaded contract: AugurWalletRegistry: "0xD3E7F45e5794ac622239d8D1ac64130C1c9C394B"
Uploading new version of contract for AugurWalletRegistryV2
Upload contract: AugurWalletRegistryV2
Uploaded contract: AugurWalletRegistryV2: "0x5B012203dd50c4204Bd762bdCDd652e41FFD07BD"
Uploading new version of contract for Time
Upload contract: Time
Uploaded contract: Time: "0xcCa5AC04C0380f7aDA930329c5DE94ad07490ad8"
Uploading new version of contract for WarpSync
Upload contract: WarpSync
Uploaded contract: WarpSync: "0x1880f6b5f90d726A0E320589862E90A6472421BD"
Uploading new version of contract for DisputeCrowdsourcerFactory
Upload contract: DisputeCrowdsourcerFactory
Uploaded contract: DisputeCrowdsourcerFactory: "0xE7D714E863BE50bC91782736Fd5AA6722070A6A1"
Uploading new version of contract for DisputeWindowFactory
Upload contract: DisputeWindowFactory
Uploaded contract: DisputeWindowFactory: "0x3072eCC96EDA27bb294f4035C9360ef1543bE4E7"
Uploading new version of contract for InitialReporterFactory
Upload contract: InitialReporterFactory
Uploaded contract: InitialReporterFactory: "0xf38713A8ed31f123aD5f63165F4Bb4B78212D1db"
Uploading new version of contract for MarketFactory
Upload contract: MarketFactory
Uploaded contract: MarketFactory: "0xE9916c72550FB4b52F00b89A445ab6cC0483e857"
Uploading new version of contract for OICashFactory
Upload contract: OICashFactory
Uploaded contract: OICashFactory: "0xeD59C3bD9fBEfBd1E073AF4256613198771841A2"
Uploading new version of contract for ReputationTokenFactory
Upload contract: TestNetReputationTokenFactory
Uploaded contract: TestNetReputationTokenFactory: "0x7C3b3De01Ce3641d9cf9Dab9023C9a2483Dc885a"
Uploading new version of contract for UniverseFactory
Upload contract: UniverseFactory
Uploaded contract: UniverseFactory: "0x240bBa8E467877265432fC5e83f6cC5529A8BC95"
Uploading new version of contract for AffiliateValidator
Upload contract: AffiliateValidator
Uploaded contract: AffiliateValidator: "0x32A5d08A2fc4242028FB93B9681e01269cEf4d92"
Uploading new version of contract for Affiliates
Upload contract: Affiliates
Uploaded contract: Affiliates: "0x238aD3BCb0E54C44dccf393ae1dD9882Fa3760b4"
Uploading new version of contract for DisputeCrowdsourcer
Upload contract: DisputeCrowdsourcer
Uploaded contract: DisputeCrowdsourcer: "0x33A21DE2c6BEa3c11a6bc61982f1690fdACb3409"
Uploading new version of contract for DisputeWindow
Upload contract: DisputeWindow
Uploaded contract: DisputeWindow: "0x5A0f5D197b269D0e32B91d87460B62F181060c86"
Uploading new version of contract for InitialReporter
Upload contract: InitialReporter
Uploaded contract: InitialReporter: "0x41142030E6Ff6BB0A72026C5F9bDbd6E1ff9A0aa"
Uploading new version of contract for Market
Upload contract: Market
Uploaded contract: Market: "0x2096f7B5291c7E1F16F7a31bCD59d0C81e9bB0a9"
Uploading new version of contract for OICash
Upload contract: OICash
Uploaded contract: OICash: "0xCA03F8e453fBf6BfDFFb802331e772b16067d6A2"
Uploading new version of contract for RepOracle
Upload contract: RepOracle
Uploaded contract: RepOracle: "0x157027f366661AfEBD496F65B366688c6A26832c"
Uploading new version of contract for ShareToken
Upload contract: ShareToken
Uploaded contract: ShareToken: "0x94D5998FB197C9EDA5862bA5BD94755FCDca2542"
Uploading new version of contract for CancelOrder
Upload contract: CancelOrder
Uploaded contract: CancelOrder: "0x8B642Ef6527DE40F795273d1482B213a12fCF8a1"
Uploading new version of contract for CreateOrder
Upload contract: CreateOrder
Uploaded contract: CreateOrder: "0x5dCa4dd45F17679BAF0a41e7C8f515c617246230"
Uploading new version of contract for FillOrder
Upload contract: FillOrder
Uploaded contract: FillOrder: "0x284acBca05A9cF5B98b5F71F4BB75E9e8BD121f4"
Uploading new version of contract for Orders
Upload contract: Orders
Uploaded contract: Orders: "0x060fdb3D80FEfa0964Ee0E48f15CcF16BA3F2Da8"
Uploading new version of contract for ProfitLoss
Upload contract: ProfitLoss
Uploaded contract: ProfitLoss: "0x2Ab6079C497A05442D0306e93C47B2Bd805baDD2"
Uploading new version of contract for SimulateTrade
Upload contract: SimulateTrade
Uploaded contract: SimulateTrade: "0xfd20d12e91A519e723Cbed4d12904C13C8f76981"
Uploading new version of contract for Trade
Upload contract: Trade
Uploaded contract: Trade: "0xc5e0fcF87148DD41cd7547BA3Bc2EF2Ab3E0E258"
Uploading new version of contract for ZeroXTrade
Upload contract: ZeroXTrade
Uploaded contract: ZeroXTrade: "0x1e22caBDF251dd3f8995f940aa6Bda6aC7729e2a"
Uploading new version of contract for AccountLoader
Upload contract: AccountLoader
Uploaded contract: AccountLoader: "0x0D37fF436aC014A518Fa7ef21165fE5C3801B6B5"
Uploading new version of contract for AuditFunds
Upload contract: AuditFunds
Uploaded contract: AuditFunds: "0x3923f7bb3e2A6136e1C2365a35a0761224CDeA68"
Uploading new version of contract for BuyParticipationTokens
Upload contract: BuyParticipationTokens
Uploaded contract: BuyParticipationTokens: "0x2EfFa9b1Ad484Fc147231141215f622533F24093"
Uploading new version of contract for Formulas
Upload contract: Formulas
Uploaded contract: Formulas: "0x713a5cC4f2880b39a611419F4eBeAc8e9621b3c1"
Uploading new version of contract for HotLoading
Upload contract: HotLoading
Uploaded contract: HotLoading: "0xcdCFCFaA53b90D46839ce045Db5DD6B3aeB6A7aB"
Uploading new version of contract for RedeemStake
Upload contract: RedeemStake
Uploaded contract: RedeemStake: "0x7D4f935BDaFbBbC66C7BdB454f9c35Ca3eE7C760"
Uploading new version of contract for RepSymbol
Upload contract: RepSymbol
Uploaded contract: RepSymbol: "0xf0eB27a04044C1FfB96a311D4F40F1717e01bF1D"
Upload contract: LegacyReputationToken
Uploaded contract: LegacyReputationToken: "0x28d1F30530dD17fCfBa915F7F095189772E0dC9f"
Upload contract: Cash
Uploaded contract: Cash: "0x43a1EA938FcD02150cD58e5aFe3cC2D19823C6FE"
Upload contract: WETH9
Uploaded contract: WETH9: "0x8f97bF1Cbc87c4C30D94B8d64093FE0149e121cF"
Upload contract: USDC
Uploaded contract: USDC: "0xF133bEE403834DcE564cCa95339059b73337a62B"
Upload contract: USDT
Uploaded contract: USDT: "0x670340981d6C66A7f0F66f82Ad0F030193CAbE24"
Upload contract: ERC20Proxy
Uploaded contract: ERC20Proxy: "0x9AED73EeE4218852A0E598a8f3CEc63aF4f3e10A"
Upload contract: ERC721Proxy
Uploaded contract: ERC721Proxy: "0x0847ecd1aA7EEc2CF532D251b98d887E1F48340b"
Upload contract: ERC1155Proxy
Uploaded contract: ERC1155Proxy: "0xd1aDbeEeC40ab98926bF766Ce678A8665a151060"
Upload contract: MultiAssetProxy
Uploaded contract: MultiAssetProxy: "0x557cd7e44C332f4FEb757eD125a8C53B9eE5fBE8"
Upload contract: Exchange
Uploaded contract: Exchange: "0x47D7715857734d9A169E29927154ceAafeEE3461"
Upload contract: Coordinator
Uploaded contract: Coordinator: "0x4c8ad7023cBaE0FF20e2b3fE1c4dCd8Fe12282d6"
Upload contract: CoordinatorRegistry
Uploaded contract: CoordinatorRegistry: "0xc5733c94B7b37763d7964BB3be06b26Ce186eC6B"
Upload contract: ChaiBridge
Uploaded contract: ChaiBridge: "0xa408eA5736Fc5B0aB60BAEC9bfc00EDA1f20Aa80"
Upload contract: DevUtils
Uploaded contract: DevUtils: "0xb48B48D7D54de75d346C18AAFDaCAd3953F1D152"
Upload contract: ZRXToken
Uploaded contract: ZRXToken: "0xd29A0005902A358728A063d770aFbd948047F8e8"
Upload contract: UniswapV2Factory
Uploaded contract: UniswapV2Factory: "0xdCe3C6f35a00eadC6EAE0a90250b8C5c4c8738CB"
Upload contract: UniswapV2Router02
Uploaded contract: UniswapV2Router02: "0x1c88e69B9db2Ef240259e5ECCa72e0ba50DF6cEB"
Relay Hub is already deployed to this environment. Skipping Deploy.
Uploading GSN V2 contracts
Upload contract: Penalizer
Uploaded contract: Penalizer: "0x3a3500691482cc866E835A073afC05095941be36"
Upload contract: StakeManager
Uploaded contract: StakeManager: "0xb946625f570E8b39E95ab11f9236F1C20aD20030"
Upload contract: RelayHubV2
Uploaded contract: RelayHubV2: "0x9B4FAd0A274bA0DA7936d77Ada705A7DaA4b1D7D"
Initializing contracts...
Initializing ShareToken contract
Initialized ShareToken contract
Initializing CreateOrder contract
Initialized CreateOrder contract
Initializing FillOrder contract
Initialized FillOrder contract
Initializing CancelOrder contract
Initialized CancelOrder contract
Initializing Trade contract
Initialized Trade contract
Initializing Orders contract
Initialized Orders contract
Initializing ProfitLoss contract
Initialized ProfitLoss contract
Initializing SimulateTrade contract
Initialized SimulateTrade contract
Initializing ZeroXTrade contract
Initialized ZeroXTrade contract
Initializing WarpSync contract
Initialized WarpSync contract
Initializing RepOracle contract
Initialized RepOracle contract
Initializing AuditFunds contract
Initialized AuditFunds contract
Initializing AccountLoader contract
Initialized AccountLoader contract
Initializing AugurWalletRegistry contract
Initialized AugurWalletRegistry contract
Initializing AugurWalletRegistryV2 contract
Initialized AugurWalletRegistryV2 contract
Initializing AugurWalletFactory contract
Initialized AugurWalletFactory contract
Doing trade approvals...
Initializing fake legacy REP
Creating genesis universe
Creating genesis universe...
Genesis universe address: 0x7CF962B8A41561Ba4b3F2d6E764E2198c72449ED
Migrating from fake legacy REP
Initializing warp sync market
Approving Augur
Add ETH-Cash exchange liquidity
Error: sender doesn't have enough funds to send tx. The upfront cost is: 20000052768100000000 and the sender's account only has: 12652093044100000000
    at getResult (/home/tobias/.jenkins/workspace/Main/node_modules/ethers/providers/json-rpc-provider.js:40:21)
    at exports.XMLHttpRequest.request.onreadystatechange (/home/tobias/.jenkins/workspace/Main/node_modules/ethers/utils/web.js:111:30)
    at exports.XMLHttpRequest.dispatchEvent (/home/tobias/.jenkins/workspace/Main/node_modules/xmlhttprequest/lib/XMLHttpRequest.js:591:25)
    at setState (/home/tobias/.jenkins/workspace/Main/node_modules/xmlhttprequest/lib/XMLHttpRequest.js:610:14)
    at IncomingMessage.<anonymous> (/home/tobias/.jenkins/workspace/Main/node_modules/xmlhttprequest/lib/XMLHttpRequest.js:447:13)
    at IncomingMessage.emit (events.js:326:22)
    at IncomingMessage.EventEmitter.emit (domain.js:483:12)
    at endReadableNT (_stream_readable.js:1241:12)
    at processTicksAndRejections (internal/process/task_queues.js:84:21) {
  code: -32000,
  data: {
    stack: "Error: sender doesn't have enough funds to send tx. The upfront cost is: 20000052768100000000 and the sender's account only has: 12652093044100000000\n" +
      '    at t.<anonymous> (/home/tobias/.config/nvm/versions/node/v18.13.0/lib/node_modules/ganache-cli/build/ganache-core.node.cli.js:55:2008456)\n' +
      '    at /home/tobias/.config/nvm/versions/node/v18.13.0/lib/node_modules/ganache-cli/build/ganache-core.node.cli.js:55:2007756\n' +
      '    at Object.next (/home/tobias/.config/nvm/versions/node/v18.13.0/lib/node_modules/ganache-cli/build/ganache-core.node.cli.js:55:2007861)\n' +
      '    at c (/home/tobias/.config/nvm/versions/node/v18.13.0/lib/node_modules/ganache-cli/build/ganache-core.node.cli.js:55:2006575)\n' +
      '    at processTicksAndRejections (node:internal/process/task_queues:95:5)',
    name: 'Error'
  },
  url: 'http://localhost:8545',
  body: '{"method":"eth_sendRawTransaction","params":["0xf87882034c844190ab0082bb63948f97bf1cbc87c4c30d94b8d64093fe0149e121cf8901158e460913d0000084d0e30db086030d90733928a0a8aaffa5df4962d4fd5e22d8d62d9c71fc931ff0156072141c179740faf13770a062b9fbfeba6c48c70d85d3fc08d6e14a793dacf8030508576770e104dc3cbf0e"],"id":733,"jsonrpc":"2.0"}',
  responseText: `{"id":733,"jsonrpc":"2.0","error":{"message":"sender doesn't have enough funds to send tx. The upfront cost is: 20000052768100000000 and the sender's account only has: 12652093044100000000","code":-32000,"data":{"stack":"Error: sender doesn't have enough funds to send tx. The upfront cost is: 20000052768100000000 and the sender's account only has: 12652093044100000000\\n    at t.<anonymous> (/home/tobias/.config/nvm/versions/node/v18.13.0/lib/node_modules/ganache-cli/build/ganache-core.node.cli.js:55:2008456)\\n    at /home/tobias/.config/nvm/versions/node/v18.13.0/lib/node_modules/ganache-cli/build/ganache-core.node.cli.js:55:2007756\\n    at Object.next (/home/tobias/.config/nvm/versions/node/v18.13.0/lib/node_modules/ganache-cli/build/ganache-core.node.cli.js:55:2007861)\\n    at c (/home/tobias/.config/nvm/versions/node/v18.13.0/lib/node_modules/ganache-cli/build/ganache-core.node.cli.js:55:2006575)\\n    at processTicksAndRejections (node:internal/process/task_queues:95:5)","name":"Error"}}}`,
  transaction: {
    nonce: 844,
    gasPrice: BigNumber { _hex: '0x4190ab00' },
    gasLimit: BigNumber { _hex: '0xbb63' },
    to: '0x8f97bF1Cbc87c4C30D94B8d64093FE0149e121cF',
    value: BigNumber { _hex: '0x01158e460913d00000' },
    data: '0xd0e30db0',
    chainId: 1678396464258,
    v: 3356792928552,
    r: '0xa8aaffa5df4962d4fd5e22d8d62d9c71fc931ff0156072141c179740faf13770',
    s: '0x62b9fbfeba6c48c70d85d3fc08d6e14a793dacf8030508576770e104dc3cbf0e',
    from: '0x6c7BB9a0740a735d9C22667585Bc8ce51eEC36F3',
    hash: '0xefa93ef5763a4b38ef7ed4b2524f34b2e5f06c7f6e9abfabb68ee48f0861d255'
  },
  transactionHash: '0xefa93ef5763a4b38ef7ed4b2524f34b2e5f06c7f6e9abfabb68ee48f0861d255'
}
error Command failed with exit code 1.
info Visit https://yarnpkg.com/en/docs/cli/run for documentation about this command.
error Command failed.
Exit code: 1
Command: /home/tobias/.config/nvm/versions/node/v12.22.12/bin/node
Arguments: /home/tobias/.config/nvm/versions/node/v12.22.12/lib/node_modules/yarn/lib/cli.js flash --key [*******] deploy
Directory: /home/tobias/.jenkins/workspace/Main/packages/augur-tools
Output:

info Visit https://yarnpkg.com/en/docs/cli/workspace for documentation about this command.
error Command failed with exit code 1.
info Visit https://yarnpkg.com/en/docs/cli/run for documentation about this command.
Build step 'Execute shell' marked build as failure
Finished: FAILURE
